:020000040000fa
:080000000002040000000000f2
:020000040000fa
:100400004f9b2000eefd20000e0188000000000040
:100410000c00070040ab2100010020001100070084
:10042000000020000000e000020032000000020096
:100430000000000004040200000000000040da0098
:100440000000fe004440a900200320000000e0005e
:100450000300320000002000a00188004440a800f2
:100460000000060091018800800078000000eb0089
:1004700015003700e280400032a0b4009101ba00bc
:10048000e280400032a0b4009102ba00e280400055
:1004900032a0b4000002eb00472bde00f507b200eb
:1004a000602ce10004003a000059eb008301e900f0
:1004b000fdff3e00040037006128e100010032002a
:1004c0000082eb00040007001101ba000200e00006
:1004d000e8ff3a00000006003159ba008301e90044
:1004e0000c0032002159ba008301e90008003200f3
:1004f0000400e00003003a00e280400032a0b400b3
:10050000f5ff370011d9ba008301e900faff3a007c
:100510008100e800e180400032a0b4000000060045
:10052000809fbe00504d8000614d80006100400002
:10053000e0804800504d8800614d88008460a9002b
:100540004f00be0000400600aa29ef00ac29ef00d2
:1005500000c429001008880021058000f0ff280051
:100560000080600000e0a000200588009460a800e2
:1005700005e1a800000006009460a9009460a800ae
:10058000504d8000614d800000000600889fbe0035
:100590008a9fbe0000057800f7ff07000004be0038
:1005a000cfd5de00f4ff0700080150008981580014
:1005b0008a0f51008b8f5900faff39004f05be009a
:1005c0004f04be00000006003400f800881f7800c9
:1005d00008002000a80188004f0478008580a90049
:1005e0009580a9003400f900004006003600f800ac
:1005f000809fbe00829fbe00849fbe00869fbe007b
:100600003400f80000002000a00188002222ab0086
:10061000020032002222a900080037002242ab006b
:100620000200320030118000060037002202ab00c9
:100630000200320030118000870907008560a900a0
:100640009560a8003400f9004f03be004f02be00c1
:100650004f01be004f00be003600f900004006000a
:100660002002a90091ff2f008000fd002022b6008b
:100670008000fd0020a2a9002062a90020c2a900dc
:100680004011880023a2a90023e2a90011118000d3
:10069000f0f32f00008060000060a00010118800bf
:1006a0008560a9009560a8009580a90021e2a800b6
:1006b0002342a800000006002322ab00feff3a0000
:1006c0000080fb002011880000000600889fbe000b
:1006d000000478000300370038407800f6ff070078
:1006e000890078008104e900e08f5000faff3a00a9
:1006f0004f04be00000006002c03f8009e09f9001c
:100700002e03f800a009f9000663a9009220a900b1
:10071000004006009220a900e1068000f0f82f00ba
:10072000008060000006b300e0068800a220a80058
:100730000663a9000de3a80061188000f00f2e00e9
:100740000080600000a0a0006018880002c3a9001b
:1007500002e3a8000000060002e3a80021358000a3
:1007600000fc2f00808060000120a000213588005f
:10077000c882a80021358000008060000020a00011
:100780002035880091368000f00f2c00008060003a
:100790000030b30090368800c862a90040012000f4
:1007a000afff3700f04c8000cf80de00560107001d
:1007b000d280260033b52300ba01070002002c00c6
:1007c00013642400b70107000200200063512400d5
:1007d000bc003700f10b07005bff0700e1050700d5
:1007e000ccff0700dcff070001e3a80001e4a8003c
:1007f000c70a07003e0a0700770607007e090700c0
:100800008e08070088023700881f7800f1ff070074
:10081000401f20005dff07000004eb0056ff0700ab
:10082000104d8800214d8800520020000300200058
:10083000e0010700e00f5000e08f5800f7ff3a009a
:100840006140b900e30f5000e08f58000c003e00fb
:100850000060010003003700040037000500370086
:1008600006003700340a0700050037004b07070071
:100870000300370088040700010037004408070020
:100880000804e800e30f5400e4ff3400e2ff3700ff
:100890000040da000000fe0000a0fe00841f780087
:1008a000851f7800881f78008a1f78004400f800b0
:1008b000080f200028028800000490001005900016
:1008c000a000900030019000c00190000300ca0019
:1008d0000280ca000030cb001a00cd004604c300dd
:1008e0000100ca004604c0001e04c0000605c00086
:1008f0000100cd0021009800050d7800eaba9700ac
:10090000052578004400f9004f0578004f04780071
:10091000cf0278004f0278000080fe000000060041
:10092000801f78004000b0000008eb004f00780006
:10093000801f7800100090000018eb000018eb00fa
:100940000008eb004f0078000000060003f0a20052
:10095000889fbe008a9fbe008c1f78002a01070076
:10096000310133006450e1004f0032006420e100a7
:100970005200320003826c0007003b000905d000e2
:100980000306d000820f54000c065d0002003900ff
:100990000200320089017800030678008582550044
:1009a00004003d000003fd008103fd008502ea0014
:1009b0008b854200840f720002003b006000100033
:1009c000e08018006011b8000005eb007a28e10013
:1009d0000a00390006007800c75ddd00f707b200a5
:1009e000878075002d003700828171000a01780030
:1009f000610560008180d1000080d3008502e9009c
:100a0000f9ff3b00060440008784480002003b00d9
:100a100060041400e0841c000988a3000700320071
:100a20008a81710082817100610164008904d100b2
:100a30000884d3008b05e800170037000978a3006d
:100a400013003a000b00e000130034008b05e900ae
:100a50000804440089844c000a4474000978a30007
:100a60000d003a000b00e000070034008b05e900a0
:100a70000804440089844c0001003a000b00200067
:100a80000978a300f7ff32000001eb0002003700f5
:100a9000828171000a017800a00007000cf0a70015
:100aa00001f0a000e90037006420e10002003a00f4
:100ab000838f6c00e90033000801be000200be0015
:100ac000e2003700889fbe008a9fbe008c1f78001e
:100ad000cd000700d400330003866c006450e100b1
:100ae0002e0032006420e100330032006150e1004a
:100af0002f0032006120e100310032008585550071
:100b0000eb07b000090020000804200005003700b2
:100b10000804440089844c000a00310006034300a5
:100b200087834b000001530081815b00f8ff330095
:100b30000203be000800a0000804440089844c00a1
:100b4000f6ff3900c639dd00830173000100320071
:100b5000130020008904d1000884d3000998a30061
:100b6000050032000800a7000300a0008904d1009e
:100b70000884d3008b05e8008904d1000884d300e1
:100b80000001eb000281d2006400070001f0a10027
:100b90000cf0a70001f0a000ac0037006420e100d9
:100ba000ae0032000801be000200be00f7ff3700b1
:100bb0006120e100a90032006000b800f3ff3700b7
:100bc0000000200001f82700f0ff3700839f680035
:100bd0000100e00002003d0060001000e08018000d
:100be0000300e00002003d0060011100e0811900f7
:100bf000e00007004f00e00002003b006000100032
:100c0000e08018000000060014002000ec0037000f
:100c1000f4ff2f00ea0037000001be006500070066
:100c20000470a70003f0a1006509b10016003200ae
:100c30000d0035006828e10006003500f0ff2f00a8
:100c4000f1ff27000300e00013003b000100280033
:100c50000000050000004000818048008502e90096
:100c6000fcff3a0008003700f88f420002003c0009
:100c70008000eb00000005008100d1000080d3005f
:100c80008502e800fcff3a000300e00002003b00a0
:100c900060001000e0801800000006000001be00a7
:100ca000440007000470a70003f0a10003f8a300ac
:100cb00013003a006509b100100032000900350048
:100cc0006928e1000200350001002800000005004d
:100cd00000004000818048008502e900fcff3a00e6
:100ce00000000600f88f4200050035008100d100a9
:100cf0000080d3008502e800fcff3a0000000600f7
:100d00008000eb00000005004f89de0082017800c2
:100d1000c60037006011b800d40037008100200001
:100d2000618055000b003d000b00200061fe2f008c
:100d30000100e1001d003400828171006101640046
:100d40008904d1000884d3000000e800faff3a00cb
:100d50007100200061006400030070000200600068
:100d60000900320061044400e0844c000988a500b9
:100d7000050032008b05e8006808e10002003a0037
:100d80008904d1000884d300f20f20000258e1004a
:100d900005003d00c75ddd00f907b20089807500e0
:100da00008007800000006000bf827008b00780090
:100db00000000500c70ade00f107b200f50fb2001f
:100dc00008003200e1cf4200020032000170a000b2
:100dd00024000500810f70000100320004080500a6
:100de00044000500810f700002003a001400050065
:100df0008502e9000000400081c04800fcff3b0084
:100e00000170a000240005000004be00e9ff0700f7
:100e10000003be000405be000200be00e5ff07009f
:100e2000844f7500000006000200be006450e1001f
:100e3000050036006420e100020036000968a300c6
:100e400001003a000800be000160a0004f067800d3
:100e50004f05be004f04be0000000600f0ff2f004b
:100e6000f1ff2700f9ff3700811f78000100e00043
:100e700002003d0060001000e08018000300e00068
:100e800002003d0060011100e081190049000700e7
:100e90004f00e00002003b0060001000e0801800fe
:100ea00000000600889fbe008a9fbe008c1f78004d
:100eb000d5ff0700dcff330003866c006450e100bf
:100ec000240032006420e100270032006150e1007c
:100ed000220032006120e100210032008b854200b7
:100ee000eb07b1000134b800003ab8000804420032
:100ef00089844a00013ab8000030b8008880400078
:100f000009014a00040033000000400081804800cd
:100f1000020149008b05e900c909dd008301700069
:100f20000100320013002000c814de004814dd0068
:100f30004709de001200b200c808de000884700015
:100f400076ff070001f0a1000cf0a70001f0a0005f
:100f5000beff37006120e100c0ff32000801be0083
:100f60000200be00f7ff37006150e100fcff3a00cd
:100f7000baff37006022b800060220000000d0004f
:100f80008180d2000482d2008582d2000000a000bd
:100f90000202520083825a00030031000202420022
:100fa00083824a000000a1000603e900f3ff3a0033
:100fb00000000600efff07000400be00000006006e
:100fc000889fbe008a9fbe00841f78008eff0700a6
:100fd0004f00780011003300f0ff2f00838f6c006a
:100fe00006003b00040565000a00a7000800370062
:100ff00009f0a6001000200008003700820f5400fe
:10100000838f5c00030039001000200001003e00c7
:101010000000200009f0a7000000ea004f05be0014
:101020004f04be000000e00000000600881f7800aa
:10103000030478000300e00007003d00600010009a
:10104000e080180060011900e081190002003b00f7
:1010500001f02d00030037000400070008f0a7008e
:1010600001f0a0004f04780000000600889fbe0039
:101070008a9fbe0000827000040271000482710029
:10108000260032000004be000200be006011b8005d
:101090006b092000950220000182cf000a00390070
:1010a0000541b1000082cf00070039000541b100c1
:1010b0000982cf00040039000541b1000882cf0049
:1010c000010039000541b100054252001200320012
:1010d0000a003b0082817100610164008100d1003f
:1010e0000080d3008984d3000884d3008b05e800f6
:1010f0000442e800f7ff3a00070037000804440004
:1011000089844c0000004800818048008b05e9007c
:101110000442e900f9ff3a0000ff07004f05be0056
:101120004f04be0000000600800178000200370076
:10113000b1597800040178000202e900e00f510083
:08114000fbff3a00000006006d
:020000040000fa
:0200000401f009
:04000c00f8ff0000f9
:020000040000fa
:0200000401f009
:040010007bff000072
:020000040000fa
:0200000401f009
:040014007fff00006a
:020000040000fa
:0200000401f009
:04001800ffff0000e6
:020000040000fa
:0200000401f009
:04001c00dfff000002
:020000040000fa
:1000080048040000480400004804000048040000b8
:1000180048040000480400004804000048040000a8
:100028004804000048040000480400009002000052
:100038004804000048040000480400004804000088
:10004800480400004804000048040000f6020000cc
:10005800e4020000480400004804000048040000ce
:100068004804000048040000480400004804000058
:100078004804000048040000480400004804000048
:100088004804000048040000480400004804000038
:100098004804000048040000480400004804000028
:1000a8004804000048040000480400004804000018
:1000b8004804000048040000480400004804000008
:1000c80048040000480400004804000048040000f8
:1000d80048040000480400004804000048040000e8
:1000e80048040000480400004804000048040000d8
:1000f80048040000480400004804000048040000c8
:1001080048040000480400004804000048040000b7
:1001180048040000480400004804000048040000a7
:100128004804000048040000480400004804000097
:100138004804000048040000480400004804000087
:100148004804000048040000480400004804000077
:100158004804000048040000480400004804000067
:100168004804000048040000480400004804000057
:100178004804000048040000480400004804000047
:100188004804000048040000480400004804000037
:100198004804000048040000480400004804000027
:1001a8004804000048040000480400004804000017
:1001b8004804000048040000480400004804000007
:1001c80048040000480400004804000048040000f7
:1001d8004804000048040000101a0000441a0000f7
:1001e8007c1a00007c03000048040000480400005a
:0801f800480400004804000067
:020000040000fa
:1002080048040000480400004804000048040000b6
:1002180048040000480400004804000048040000a6
:100228004804000048040000480400009002000050
:100238004804000048040000480400004804000086
:10024800480400004804000048040000f6020000ca
:10025800e4020000480400004804000048040000cc
:100268004804000048040000480400004804000056
:100278004804000048040000480400004804000046
:100288004804000048040000480400004804000036
:100298004804000048040000480400004804000026
:1002a8004804000048040000480400004804000016
:1002b8004804000048040000480400004804000006
:1002c80048040000480400004804000048040000f6
:1002d80048040000480400004804000048040000e6
:1002e80048040000480400004804000048040000d6
:1002f80048040000480400004804000048040000c6
:1003080048040000480400004804000048040000b5
:1003180048040000480400004804000048040000a5
:100328004804000048040000480400004804000095
:100338004804000048040000480400004804000085
:100348004804000048040000480400004804000075
:100358004804000048040000480400004804000065
:100368004804000048040000480400004804000055
:100378004804000048040000480400004804000045
:100388004804000048040000480400004804000035
:100398004804000048040000480400004804000025
:1003a8004804000048040000480400004804000015
:1003b8004804000048040000480400004804000005
:1003c80048040000480400004804000048040000f5
:1003d8004804000048040000101a0000441a0000f5
:1003e8007c1a00007c030000480400004804000058
:0803f800480400004804000065
:020000040000fa
:10114800535500004e52000049530000450000006e
:101158004441000059000000535500004e53000060
:1011680045540000004e0000494700004854000064
:101178000000000003000000000000000100000063
:101188000100000001000000010000000100000053
:10119800020000000300000003000000030000003c
:0411a8000300000040
:020000040000fa
:1011ac0001002000d8fe07000200200003a8230045
:1011bc0039ff3700020020000348240036ff0700e7
:1011cc00b3fe3700904090008180fb001040780007
:1011dc000080fb004800dd0000807000000006006d
:1011ec004809de0002487800114098000000060013
:1011fc00f4ff0700eaff3700881f7800000478002e
:10120c000200be00ebff07008000780008007800a9
:10121c00f3ff07004f04780000000600800637003b
:10122c000400fa00c0ff9f00d1ff9f0050c1b30023
:10123c00e0ff9f0031002000648057002e0607005d
:10124c000080fa00000006000400fa00c0ff9f00b6
:10125c00d1ff9f0060c0b300e0ff9f003100200071
:10126c0064805700240607000080fa000000060086
:10127c002f04b000881f78008e1f780001047800be
:10128c00cefb2f000f07470003c7b300035f7800a6
:10129c0008017800800078000e0078009fff07009e
:1012ac008800e800c0fb2f000f004000120607006a
:1012bc004f0778004f0478002f04b100000006009f
:1012cc004000fa00889fbe00570207001f003a003a
:1012dc0059020700f103200020c0b300bc06070030
:1012ec00f07f9f00f107200010c0b300b806070084
:1012fc0080c79f00f10720000040eb00b4060700f8
:10130c0090c79f00f103200040c0b300b006070057
:10131c00a0c79f00f101200050c0b300ac0607002d
:10132c00b0c79f00f10f200008407800a806070006
:10133c00c0c79f007100200030c0b300a406070096
:10134c00d0c79f00a10020001d00370022c5b300ac
:10135c0082cf50001e003a0037020700d00707006a
:10136c00f07f9f00d007070080c79f00d0070700c1
:10137c0090c79f00f103200040c0b3009406070003
:10138c00a0c79f00f101200050c0b30090060700d9
:10139c00b0c79f00f10f2000084078008c060700b2
:1013ac00c0c79f007100200030c0b3008806070042
:1013bc00d0c79f00ad040700e0c79f00b10020001c
:1013cc00c0fb2f000f004000cb0507003400370096
:1013dc008084e8000000e800104078000080fb00ea
:1013ec004e0607008040780020c0b300510607006d
:1013fc000904e800994478000980fb0047060700bf
:10140c008040780010c0b3004a0607008804e8004a
:10141c00184478000880fb004006070080407800e4
:10142c000174a0000040eb00420607000904e8002c
:10143c00994478000980fb0038060700804078004a
:10144c0040c0b3003b060700984078000180fb00c9
:10145c00320607008040780050c0b3003506070004
:10146c00d84078000180fb002c06070080407800f3
:10147c0060c0b3002f060700184090000080fb00ee
:10148c0026060700804078000134a00030c0b3006d
:10149c002806070071c7b30040c7b3006aff0700f6
:1014ac004f04be000080fa00000006004000fa0065
:1014bc00dd0107001a003a0040c5b300e401070043
:1014cc000000eb006e01b900e202b00021812000a7
:1014dc00e10079008001400002fc2f000f01410067
:1014ec00830141004889de00b24198000081e80088
:1014fc00020141000142780003fc2f008f81410062
:10150c00847179000000e800e30f5000edff360015
:10151c00b1002000030078007705070013003700a6
:10152c000000e8008000eb0003842000000178003c
:10153c00324078000083fb000200e8006e0ab9001c
:10154c0004824100c832dd00124178000281fb00a8
:10155c00028a72008100e800e38f5000f3ff36002e
:10156c0071c7b30040c5b30037ff07000080fa0015
:10157c00000006004400fa00889fbe008a1f780015
:10158c0010457800104090008040e900e2cf5000f8
:10159c0020003e0021c7b300814f55001d003a00ca
:1015ac000084fb000804e90008007800e40207004e
:1015bc000001be0008007800b2bf9f00c3bf9f00af
:1015cc00c40207000004be0090c6b300e0779f0081
:1015dc00fa779f0060c0b300807f9f003fb99700ef
:1015ec00cfb9970090fb2f000f00400002ff0700bf
:1015fc000801be00b0fb2f000f004000fefe0700ec
:10160c007100200060fb2f000f0040003a0507001e
:10161c00030037008a40780090c6b30000ff070033
:10162c004f0578004f04be000080fa000000060051
:10163c004200fa00889fbe000004780098407800b1
:10164c00080078005041e900e24f510003003600d9
:10165c00c0c6b300f2fe07003300370023c7b30047
:10166c0083cf50001b003a00c0c6b300a07f9f0080
:10167c00b17f9f0060c0b300c07f9f000240780024
:10168c00a2c0b3000440bc00820478002881200072
:10169c000900440020019000b0019000d0fb2f0005
:1016ac000f004000d4fe07000904440048019000dc
:1016bc00d8019000f0fb2f000f004000cefe070079
:1016cc0071002000a0fb2f000f0040000a0507004e
:1016dc00150037000000e8000281fb00d2bf9f001c
:1016ec00c3fe07005fb997006a12b90004017800c5
:1016fc0063812000828141008089be006400440027
:10170c00d2bf9f00bafe0700a48120005fb99700ea
:10171c00020142000089be00ac02070071c7b30091
:10172c00c0c6b300c8fe07004f04be000080fa001c
:10173c00000006004000fa009040780020c7b3007b
:10174c0080cf50000c003a0064404000400107007c
:10175c000200200003f82b0030fc2f000f0040008b
:10176c00a5fe07005100200000fc2f000f004000d8
:10177c00e10407000200370060c7b300a8fe0700b1
:10178c000080fa00000006004f04b000889fbe00e5
:10179c008a9fbe008c9fbe008e1f780000017800cf
:1017ac00924078000200780050477800e34f5700d1
:1017bc000300360020c7b30099fe07006000370015
:1017cc0023c7b30083cf500030003a0081779f00cd
:1017dc0091779f0060c0b300a0779f00be779f00f9
:1017ec00e04f570005003a006243800073438000cd
:1017fc0040fb2f000f0040001e0037000e47e90091
:10180c000e87fb004270dd002881200000004400a0
:10181c0010119000a011900040fb2f000f00400011
:10182c0075fe07006c0047004200dd00000044001c
:10183c001001be0060fb2f000f0040006efe070081
:10184c004270dd000000440070199000802190006f
:10185c0080fb2f000f00400067fe07007307470056
:10186c004277dd000e0444001801be00a0fb2f00df
:10187c000f00400060fe0700c100200000fb2f009d
:10188c000f0040009c0407002d0037000000e8000a
:10189c00e04f570005003a0055fe070060438800f2
:1018ac0071438800be0207002200370082bf9f00f0
:1018bc004ffe07000006be000fb997006400410000
:1018cc004bfe07000005be000fb9970066004100f3
:1018dc0047fe07000004be000fb9970068004100e6
:1018ec0043fe07000001be000e47e9000e87fb0017
:1018fc00418320004270dd00008040000c88be0057
:10190c006c024700208120004222dd0004024000ce
:10191c000a8abe00670247004222dd008480400034
:10192c008888be00730747004277dd000e00400038
:10193c000288be0071c7b30020c7b30042fe070087
:10194c004f0778004f06be004f05be004f04be0087
:10195c004f04b100000006004000fa00b20007007e
:10196c0009003a0010c2b300b9000700eb050700ec
:10197c00b0c79f004100200000fc2f000f0040006a
:10198c005d04070006003700104090000080fb004b
:10199c00e405070071c7b30010c2b3002afe0700ac
:1019ac000080fa0000000600881f78000004780010
:1019bc00c40507009840780030c5b30022fe07002c
:1019cc004f04780000000600881f7800000478009f
:1019dc00c4050700fd0107009840780020c5b3003e
:1019ec0019fe07004f047800000006000400fa00fe
:1019fc00889fbe008a1f7800000578001a44780082
:101a0c000a007800d04478008940e900e2cf500009
:101a1c00030036008840780020c7b300160037005a
:101a2c0071c7b300814f540011003a000000e80068
:101a3c00effd07000001be0064004500b2bf9f002f
:101a4c00c3bf9f00dffd0700800078000980fb000a
:101a5c000000e9003fb99700cfb99700fa030700df
:101a6c008840780030c7b300f7fd0700030037004b
:101a7c008840780030c7b300e9fd07004f057800b7
:101a8c004f04be000080fa00000006004000fa007f
:101a9c000104200000fc2f000f004000340407005c
:101aac00e20f400007003a0050c1b30080c79f000e
:101abc001100200000fc2f000f0040000e04070056
:101acc0057003700e00f5000550034008000e9004b
:101adc000fc19700c0c6b300804f510035003200d3
:101aec0012003e0079405000804f510045003200fa
:101afc0007003e0010c2b300804f51003500320089
:101b0c0020c5b300804f510045003a00410037001a
:101b1c0040c5b300804f51001e003200754040009c
:101b2c00804f51003e003a001e00370030c7b30012
:101b3c00804f51002f00320007003e0063405000e0
:101b4c00804f51000b00320000c0e800804f510064
:101b5c0033003a001b00370040c7b300804f5100e0
:101b6c000800320000c0e800804f51002c003a0001
:101b7c001c00370010fc2f000f004000bcfd0700bc
:101b8c002700370010fc2f000f004000ccfd070091
:101b9c002300370010fc2f000f00400043fe07000d
:101bac001f00370010fc2f000f00400071fe0700d3
:101bbc001b00370010fc2f000f0040009cfe07009c
:101bcc001700370010fc2f000f004000eefe07003e
:101bdc001300370010fc2f000f0040005eff0700c1
:101bec000f00370010fc2f000f004000d1fe070043
:101bfc000b00370010fc2f000f0040007bff07008c
:101c0c000700370010fc2f000f00400066ff070094
:101c1c000300370010fc2f000f0040006aff070084
:101c2c000080fa00000006009040780022c7b30044
:101c3c0082cf50000000060040c7b300807f9f0099
:101c4c00917f9f0068c0b300a87f9f000000060032
:101c5c00c07f9f00d17f9f0060c0b300e07f9f00da
:101c6c000000060023e4a80023c4a800f03f2f00c6
:101c7c002224b60023a4a9002384a9002324a900ac
:101c8c002304a900f0f32f002224b6002024b60070
:101c9c008001200050218800000040006021880055
:101cac002004a9002124a900300020002424b7001e
:101cbc00a121800037010700a021880000fc2f0023
:101ccc003424b6008004200030218800004b200012
:101cdc00902188000000060043e4a80043c4a8003b
:101cec00f03f2f004224b60043a4a9004384a9006e
:101cfc004324a9004304a900f0f32f004224b600aa
:101d0c004024b600800120005022880000004000d2
:101d1c00602288004004a9004124a9003000200062
:101d2c004424b700a12280001a010700a0228800d9
:101d3c00a122800000fc2f00008060000000a000a9
:101d4c00a02288008004200030228800004b200054
:101d5c00902288000000060063e4a80063c4a80079
:101d6c00f03f2f006224b60063a4a9006384a9008d
:101d7c006324a9006304a900f0f32f006224b600c9
:101d8c006024b60080012000502388000000400031
:101d9c00602388006004a9006124a90030002000a1
:101dac006424b700a1238000fa000700a023880058
:101dbc0000fc2f007424b60080042000302388001f
:101dcc00004b2000902388000000060050c7a8009c
:101ddc0051a7a800007020005027b70051e7a800b9
:101dec0000002400813a800080806000fdff3200fa
:101dfc000103a90000e3a90000c3a90000a3a900e6
:101e0c000118800080ff2f00808060005100b3001b
:101e1c000118880091c0a900d2068000f18f2f0014
:101e2c00810061000250200082807000d106880081
:101e3c00a1c0a80091e0a900d3068000f1ff280002
:101e4c00818061000300250083807000d10688002a
:101e5c00a1e0a8009200a900e106800000806000cb
:101e6c005000b300e0068800a200a8000203a900fd
:101e7c000223a9000243a9000263a9000283a9005e
:101e8c0002a3a9000603a9000ae3a80051188000c8
:101e9c0000fe2f00808060000120a00051188800f7
:101eac000623a9000be3a80053188000f10f2e00a5
:101ebc008180610002817000521888000643a900dd
:101ecc000ce3a90061188000008060006000b30082
:101edc00601888000000060000802000204a88005e
:101eec00e0fe2000304a88004094200089fa070068
:101efc00204a8000ab000700604a88004a29ef00a6
:101f0c000000060060802000704a880040ff20001e
:101f1c00804a8800e09420007efa0700704a800016
:101f2c00a0000700b04a88005429ef00000006000a
:101f3c00c0802000c04a8800a0ff2000d04a880042
:101f4c008095200073fa0700c04a800098000700b3
:101f5c005e29ef000000060030962000202088004b
:101f6c009aff07003fff07005bff07007aff07009f
:101f7c00d9ff0700e3ff0700edff3700e10f50002a
:101f8c0006003200e20f500006003200e00f500055
:101f9c0005003a00614a880000000600b14a88003a
:101fac0000000600014b880000000600e10f500005
:101fbc0014003200e20f500021003200e00f5000fc
:101fcc002e003a0012c0b300e08f50000100320026
:101fdc0000417800610161004910dd001121800091
:101fec000190a10080807000112188004811dd0053
:101ffc00102180000080a1000200700010218800d8
:10200c0000000600e08f5000010032000040eb00a1
:10201c0061006000c900dd00122280000290a10066
:10202c0001017100122288004800dd00112280009d
:10203c000180a10080807000112288000000060041
:10204c0010c0b300e08f5000010032000040eb00e4
:10205c00610060004901dd00112380000190a100a6
:10206c008280700011238800c800dd0010238000de
:10207c000080a10001007000102388000000060001
:10208c00881f7800000478000200be0002002000c7
:10209c006351240080fb070002002c001364240011
:1020ac0085fa070002002000b33924007afb0700f0
:1020bc00020020000320240077fb0700d3fa07005e
:1020cc008000780008007800acff07004f0478000f
:1020dc0000000600e10f500006003200e20f500035
:1020ec0006003200e00f500006003a00504a800013
:1020fc0005003700a04a800003003700f04a80003a
:10210c00010037000000eb00cf80de00fbfa070077
:10211c000200200003d023005ffb0700d2802600c2
:10212c0033b523005cfb070002002c001364240071
:10213c0059fb070002002000635124005efa3700af
:10214c00e10f500006003200e20f50000600320092
:10215c00e00f500006003a00104b800005003700dd
:10216c00204b800003003700304b8000010037000b
:10217c000000eb00cf80de00e0fa0700d2802600e2
:10218c0033b5230044fb070002002000031a24008f
:10219c0041fb3700f0ff20000080600000d0a00061
:1021ac00000006000200070000902000000006005e
:1021bc00e1e0210001087800e11b2e0011009800dd
:1021cc00910620002100980000000600889fbe00a8
:1021dc000000eb00468720002181200005872000ad
:1021ec007c01b90002027800840343006a01b90043
:1021fc008281400043049000d3049000888bbe0081
:10220c00048242000301780022049000b204900082
:10221c00088abe000000e800e20f5000f0ff340016
:10222c004f04be0000000600889fbe008a9fbe00bf
:10223c008c9fbe008e1f78000004eb006011b8006c
:10224c004e8720000600200007f82300e406470014
:10225c006c864600e4055600a4702d0035c22300a0
:10226c00688545007c40b9000987200080804400c7
:10227c008288be00800047008688be0080804600b1
:10228c008288be00800046008288be0080804500a7
:10229c008488be00800045008008eb00fa8444006e
:1022ac00808044008088eb000804e800e20f5400b2
:1022bc00ecff34004f0778004f06be004f05be0000
:1022cc004f04be0000000600704d8000814d800060
:1022dc0000000600889fbe008a9fbe008c9fbe0037
:1022ec008e1f7800000678000204be000200200059
:1022fc0003f823000800be00b200070002003400ff
:10230c000800200009f823006011b8000800be0086
:10231c00af00070001003d006044b8007c66b900c6
:10232c00c08720000c0040000888be00724d800061
:10233c00834d80000800be00d7fa07000005be00e0
:10234c0040882000000746000a01be001e00be00a7
:10235c007bf907000200200083242400d6f9070033
:10236c000004be006011b8009900070001003d0098
:10237c0009f0a200008820000c0040000888be0074
:10238c00808720000c0640000a8ebe004f077800a4
:10239c004f06be004f05be004f04be0000000600f5
:1023ac00889fbe00704d8800814d88000004eb00b2
:1023bc00098720007c40b900008044006001900037
:1023cc00f001900008007800c2ff07000804e80044
:1023dc00e20f5400f7ff34004f04be00000006006b
:1023ec007c00b9007800400011002000028720001a
:1023fc0062007800e00f5000010032008000eb001a
:10240c000100780000000600e4874700889fbe00aa
:10241c008a9fbe008c9fbe008e1f7800000778003c
:10242c007c76b9000d8720000c8046001001be00a0
:10243c00b00090002000900041f907000005be009c
:10244c00660007006200070006003d006c000700f4
:10245c003cf907006f0007005a0007000100340028
:10246c00088ebe007c76b9000d8720005b0007004b
:10247c0054000700060034006100070030f9070023
:10248c00640007005200070001003d00088ebe00ea
:10249c007c74b900f800440000872000e0807800cc
:1024ac0081bf9f00080040006011b800b008900088
:1024bc0020089000d1f9070081882000e00f50001f
:1024cc0003003c0008844000000ceb0002003700c5
:1024dc001000200080307c007c74b900098720003b
:1024ec000880440020099000b00990001006be003e
:1024fc000200be0068fa07000001be000a00be0020
:10250c0065fa07000001be000c00be000df90700c3
:10251c000005be0008844400b80490002804900014
:10252c000801be002700070001003c000a04be00a1
:10253c000c01be000800be00b0f90700e00f50000f
:10254c0001003c006044b8000801be000e00780099
:10255c00cbfe07007c70b90078004000018720009a
:10256c00e10078000fb89700810f50000200320094
:10257c000e0078008dfe07004f0778004f06be0056
:10258c004f05be004f04be004f00b1000000060016
:10259c000000eb009cff0700100020009aff0700d2
:1025ac002000200098ff37007c00b90042882000f2
:1025bc00020040001000be0000000600e0fe3700e4
:1025cc00c4fe37008ff90700e00f50000000060032
:1025dc008af90700e00f5000000006000c8046004e
:1025ec00200c9000b00c9000680046000080460063
:1025fc00e0b79f001001be000800be0000000600fe
:10260c008c8646000d0990009d0990000800be00c4
:10261c00000006000002be00408820000c064000ae
:10262c00048ebe006fb097001004be000801be00ff
:10263c000400be00000006004881de00c10320003b
:10264c000191b9000080fb000201400002007800fb
:10265c0000000600a04c80006300600000004000f9
:10266c00619920006100780000000600a04c8000f9
:10267c00000006000000e900630060000000060096
:10268c000000e800fcff37000f02b000889fbe007e
:10269c008a9fbe008c9fbe008e1f78000e007800b3
:1026ac000f077800ce02b100e18b28000b00090067
:1026bc00311f780000077800a14c80006609b90032
:1026cc000200780043fd2f008f81410063017800e8
:1026dc006e11b9002202b0002881200008014100cf
:1026ec00f2b79f000081e80043fd2f008f8141006d
:1026fc006301790064004000630278006e22b90027
:10270c0004067800200220000c0040000800400065
:10271c00e0b79f00e18f500049003200e38f50007a
:10272c00470032006e10b900e002b000680078007b
:10273c0082bf9f00c0ff070000057800ec02b000cc
:10274c0068007e00bcff070000067800404b80004c
:10275c00b9ff07000fb997008a0f560003003d0020
:10276c00015a200081004600010037008c007800df
:10277c008a8040008180d100035a2000838f500052
:10278c0001003400838050008a0f500002003d008d
:10279c00035a2000030040008a0f560002003d003f
:1027ac00035a2000030646008a8f500002003d00a9
:1027bc00035a2000838040006e11b900448320002e
:1027cc0004014100810f500003003500f2b79f0057
:1027dc000105780002003700e2b79f00010678007f
:1027ec00a30007000004be00504b8000cf80de0029
:1027fc0042f907000200200003272400aef807006e
:10280c000001be000800be004ef807000004be0028
:10281c000c00e800960007000001be000800be0096
:10282c00a5f807000005be000001be000000200056
:10283c0001f8230042f807000004be000300370033
:10284c006055b8000800200009f823000007eb00d1
:10285c006670b900c296200062007800e00f50004c
:10286c0014003c004272dd00ffb097000480400071
:10287c001001be000800be0084bf9f0086f907004f
:10288c000006be000fba9700efb19700048241001a
:10289c001401be000a00be007ff907000001be0053
:1028ac000c00be0027f807000001be000e007800e7
:1028bc0088fe07000e07e800e20f5700e4ff340023
:1028cc004f0778004f06be004f05be004f04be00f8
:1028dc000f02b10000000600889fbe000004eb0050
:1028ec00098021000800780065ff0700414b80003b
:1028fc006e41b900e202b00023812000630179002f
:10290c006e02b900e402b00063007a00820f50003e
:10291c0001003d0009004000828f500003003d0083
:10292c0089804000828f500004003500808f500059
:10293c0002003c00a84c8800030037000804e800a3
:10294c00e30f5400e7ff36004f04be000000060002
:10295c00881f7800f5010700510207000004780079
:10296c0051020700c840dd0000804000404b880049
:10297c004f020700504b8800d7ff07004f04780028
:10298c0000000600889fbe008a1f7800f04b800074
:10299c00014c8000124d8000234d8000800f5100af
:1029ac00818f59001f003600dc010700893e200092
:1029bc00e00f500001003200a90020006149b9006d
:1029cc00f04b8000014c80000000410081804900e8
:1029dc00f04b8800014c8800ddff070009007800ef
:1029ec0029ff07000004eb00ca9620006640b900de
:1029fc00ea007800e08f5000070034000001450029
:102a0c00098950000200780010019000a00190008c
:102a1c00080078002ffe07000804e800e20f5400bd
:102a2c00f2ff34004f0578004f04be000000060092
:102a3c00c7ff07000000eb00604b8800904b88003c
:102a4c00c04b880000000600010278006600b90047
:102a5c00e1962000808040008288be00823e2000eb
:102a6c0002a1b900c1962000823078000000060057
:102a7c000a005000cf80de00a0f83700881f7800d5
:102a8c0000447800e34f54000d00320003003e0078
:102a9c00e24f540014003a0005003700e94f54008f
:102aac000b003200fb4f54000f003a000c003700b3
:102abc00b0c1b300fdf6070040c0b3000b003700f7
:102acc00b0c1b300f9f6070050c0b30007003700df
:102adc00b0c1b300f5f6070060c0b30003003700c7
:102aec0008407800f1f6070008407800eff6070080
:102afc004f04780000000600889fbe008a9fbe002d
:102b0c0080047800010478008800780009007800bf
:102b1c000a0307000005780020c0b300e3f60700a5
:102b2c000300370039407800d4ff07000b0478000d
:102b3c008805e900e00f5400faff3a004850de0027
:102b4c00ceff07000a407800ccff070030c0b3006e
:102b5c00d6f607004f05be004f04be00000006006d
:102b6c000000eb00404d8800304d8800000006004e
:102b7c00889fbe008a1f780000057800404d8000b9
:102b8c0081047800808f54000100340080047800a8
:102b9c00e08f54001d0032000084eb00e18f5400e4
:102bac001b0034000984e900880078004090200064
:102bbc00e2020700800178004290200062407c0015
:102bcc004800dd008904e900e2c07c008180fb0044
:102bdc0081007000f0ee2b00808f50000500320059
:102bec00838f500003003200ddff0700e8ff2f0049
:102bfc000700370008017800419020000a00780097
:102c0c0046f90700d6ff07000100370009047800d9
:102c1c00080078004f0578004f04be000000060045
:102c2c00a629ef00ceff3700414d8000f2032000b3
:102c3c00828f500004003c004290200000f178008c
:102c4c008100e800414d880000000600e94f50006b
:102c5c0002003a000000fe000d003700e34f500068
:102c6c0005003a00414d8000e08f50000800340010
:102c7c00300020000f003700e24f500004003a00f3
:102c8c0010002000304d8800a829ef00000006003d
:102c9c00314d8000e18f500003003200e28f500074
:102cac0018003a0006003700fb4f500003003a00b2
:102cbc0020002000304d880000000600daff3700ad
:102ccc00e44f500002003a00014078000a0037003f
:102cdc00e54f500002003a0030c0b3000600370048
:102cec00e64f500002003a0090c0b30002003700db
:102cfc00fb4f500001003a00cbff070010002000f2
:102d0c00304d8800000006006f0160004480de003a
:102d1c006a00b9000000410000000600a20020007b
:102d2c00110009000200d8004400dd000100400041
:102d3c0000000600889fbe008a1f780000457800be
:102d4c008144780074010700e0cdb30077010700df
:102d5c00004478000a4078007401070009407800ac
:102d6c0072010700a20107000880fb004f057800e4
:102d7c004f04be0000000600889fbe00004478008f
:102d8c0065010700e0cdb3006801070080407800c2
:102d9c008084eb00e0cf50000a003200084078003d
:102dac0062010700920107005b010700f0cdb30040
:102dbc005e0107000040eb00750107008084fb00fa
:102dcc008b010700090078004f04be0000000600cc
:102ddc00881f780001047800e7ff070008006000f6
:102dec00c9ff07004f04780000000600881f780018
:102dfc0030c0b300e0ff07000004780001c4b3004a
:102e0c0070c0b300cbff0700884078000134a000ed
:102e1c0030c0b300c7ff07000802b20012003a002e
:102e2c0001c1b30060c0b300c2ff070031c0b300e2
:102e3c0050c0b300bfff070011c0b30040c0b300c7
:102e4c00bcff070091c0b30020c0b300b9ff07005e
:102e5c008840780010c0b300b6ff070001cbb30068
:102e6c0008407800b3ff07004f047800000006000c
:102e7c00889fbe008a1f78000005780081047800c6
:102e8c000204780024010700e0cab3002701070000
:102e9c000940780025010700550107001e010700b5
:102eac00f0cab30021010700060037000804e9004e
:102ebc000800ea00080070004f00de003401070033
:102ecc00005d7800e00f5400f8ff3a00480107005d
:102edc004f0578004f04be0000000600889fbe001e
:102eec008a9fbe008c9fbe0080057800010478008c
:102efc0082047800fa0f20008dff2f00120037009b
:102f0c008904e9000d0664008c0f55000b0032009b
:102f1c00e08f54000900320035010700a0002000aa
:102f2c0097f50700fc000700e0cab300ff0007009c
:102f3c0008407800fd0007000c0578003b40780045
:102f4c00fa0007000804e800e08f5400ecff3a0098
:102f5c0027010700a000200089f507004f06be00de
:102f6c004f05be004f04be0000000600881f78000d
:102f7c0000002000d040880000142400e0408800ad
:102f8c0000002000b0408800000c2400c0408800e5
:102f9c001ea8ef000000200020418800001424002f
:102fac00304188000000200000418800000c240003
:102fbc001041880028a8ef00000020007041880014
:102fcc00001424008041880000002000504188003b
:102fdc00000c24006041880032a8ef000001eb00d7
:102fec00488320006000b800e4034400648343007d
:102ffc006e12b9008401780003024400008abe00fe
:10300c0003824300008abe00830143008089be0016
:10301c000201e800e30f5100f5ff340030332300c8
:10302c00c041880030f32300d0418800000020000c
:10303c001042880000f823002042880060662600b9
:10304c003042880060f62300404288003033230071
:10305c00c042880030f32300d04288003033230074
:10306c00a042880030f32300b0428800d0cc2c0062
:10307c00f0428800c0d4230000438800606626001c
:10308c006043880060f623007043880000702000c5
:10309c000042880000b020007042880000302100ff
:1030ac00e04288000070210050438800300020006e
:1030bc00a040880010d52000904088004f04780074
:1030cc0000000600e20520008000eb0020812000bb
:1030dc0082ff3700e20520008000eb0020812000f9
:1030ec0063ff3700208120002e0009000018eb0040
:1030fc00f8ff070010d5200091408000808f500011
:10310c0003003a00a0408000e30f500002003200a0
:10311c0096ff0700ebff070000000600704c8000d4
:10312c0000000600704c880000000600889fbe005e
:10313c008a9fbe00784c8000e00f540020003a00bb
:10314c000af50700824c8000934c8000020150006d
:10315c0083815800743e2000840f5100e08f590089
:10316c0033003400804c8800914c8800f10320001f
:10317c0020c0b30016ff070000017800cf91de00dd
:10318c00124c8800234c8800f107200010c0b300bb
:10319c000fff070000017800cf91de00324c880051
:1031ac00434c8800f10720000840780008ff070016
:1031bc00cf80de00504c8800614c88001c0037002a
:1031cc00eaf407004f0dde000a004000e0804800e2
:1031dc008185d1000085d300370007000a00be00ae
:1031ec0077f607000004be00330007000a00be009b
:1031fc001af70700504c8800614c88002e0007001d
:10320c000800be0015f70700304c8800414c8800c0
:10321c00290007000800be0069f6070082012000a3
:10322c00030020000df70700104c8800214c88008b
:10323c004f05be004f04be000000060001017800df
:10324c006102b900144c8800254c8800cf91de0037
:10325c00324c8800434c8800e1012000514c88001e
:10326c008c29ef00adfe07008040780020c0b30031
:10327c00b0fe0700504c8000a8fe0700804078008c
:10328c000174a0000040eb00aafe0700304c800047
:10329c00a2fe07008040780010c0b300a5fe3700e6
:1032ac00104c800000000600304c8000000006002e
:1032bc00504c800000000600c203200003000500f3
:1032cc000000eb0071022000000000000000000074
:1032dc0000000000000000000000000000000000e2
:1032ec000000e800810f5000f7ff340000000600da
:1032fc00f3ff0700c9e2a800f1ff0700c9e2a9002b
:10330c0000000600cde2a900c9e2a800cca2a900e9
:10331c00c8a2a80000000600cca2a900c8a2a9005f
:10332c00e7ff0700c9e2a900e5ff3700889fbe0050
:10333c0080447800cca2a90088c0b300e0cf540030
:10334c0002003d00c8a2a80001003700c8a2a900d5
:10335c00e7ff07000844e9000200320089c444007a
:10336c00f6ff3700c8a2a800d5ff07005916800049
:10337c00dfff0700890078000102b20010c0b30023
:10338c0001003200084078004f04be000000060027
:10339c00889fbe008a1f780000457800c8a2a8004c
:1033ac000044eb0089c0b300c5ff0700084444008b
:1033bc00caa2ab00010032000804a000ccff070039
:1033cc008944e900f8ff3a00bdff0700e04f5500c3
:1033dc0001003200c8a2a900c5ff0700c8a2a800be
:1033ec00084078004f0578004f04be00000006002e
:1033fc00cca2a900b2ff0700c8a2a900b0ff070029
:10340c00c9e2a800aeff0700c8a2a800acff0700e5
:10341c00abff3700801f7800811f780011198000e6
:10342c0020962000010878004094200001198000ab
:10343c00c508dd00310098004c04020000000000bb
:10344c00a00090004388de00810420000100e6000b
:10345c0001007800019620000180e6000100780050
:10346c0030218800902188000603a90091c0a90092
:10347c00cf0078004f00780000400600801f7800d5
:10348c00811f7800821f780031198000409620003f
:10349c0001087800e094200021198000c508dd00a7
:1034ac00310098004c04020000000000a0009000c5
:1034bc004388de00810420000100e6000100780052
:1034cc00019620000180e60001007800302288007f
:1034dc00902288000623a90091e0a9004f017800f2
:1034ec00cf0078004f00780000400600801f780065
:1034fc00811f7800821f780051198000609620008f
:10350c00010878008095200041198000c508dd0075
:10351c00310098004c04020000000000a000900054
:10352c004388de00810420000100e60001007800e1
:10353c00019620000180e60001007800302388000d
:10354c00902388000643a9009200a9004f0178003f
:0c355c00cf0078004f007800004006000f
:020000040000fa
:10356800c408000040000000020000000000100035
:103578000020000030004000005000006000700093
:10358800008100009100a10000b10000c100d1003d
:1035980000e10000f100000000210000420063008b
:1035a80000840000a500c60000e70000080029000c
:1035b800004a00006b008c0000ad0000ce00ef0058
:1035c80000000000b2090000020000000000000036
:1035d800a60900000400000002000000000000002e
:1035e8000000000004090000400000000000000086
:1035f800aa090000040000000000000044090000bf
:103608002400000000000000000800001200000074
:1036180000000000ee0f0000120000000000000093
:103628009e0900000800000000000000ae0900002c
:103638000400000002000000000080003f000000bd
:10364800700800005400000000000000820900001b
:10365800120000000200000007000000001800002f
:103668000000000000000000000000000000000052
:10367800120800005e00000000000000940900002d
:103688000a000000020000000100a40088ac8800c5
:10369800b088b70088000000680900001a00000020
:0836a80000000000000000001a
:020000040000fa
:1036b00000c0eb00b2e9b700b3e9b70000000600b4
:1036c000249b2000144278000482fb004421de0089
:1036d000319b200091407800024068000080fb0090
:1036e00000004000428c2000e20178004422dd000e
:1036f0000181fb004411de000241720003416900b8
:103700000001fd00b2e9b7000001fd00428e20007b
:1037100062017800400020000008dd0002406800df
:10372000e5ff3700881f7800004478000880fb0020
:103730004400de00e2ff07006f406400e0ff070086
:103740004f04780000000600889fbe008a1f7800a2
:103750008004780001047800d5ff070003003700db
:1037600039407800efff07000a0478000805e900f7
:10377000e00f5400faff3a00219b200091407800ae
:10378000c808dd00b3c9bf000080fb0000807000e6
:103790004f0578004f04be00000006009002200094
:1037a000303a8800f0f32f004427b60000fe2f00c7
:1037b0004427b60010002000a20920008107200045
:1037c000337420008149780082497800804978006c
:1037d00072052000610420002374200081497800d4
:1037e000824978008049780001002700000021000c
:1037f000123a800001016100800f5100fcff3a0085
:0c38000042a7ab00feff320000000600f3
:00000001FF
