:020000040000fa
:080000000028040000000000cc
:020000040000fa
:105000000fe120000eff20000e0188004440a9009f
:10501000010120000100e000030032000100200037
:10502000a10188004440a800000020000000e0002a
:10503000020032000000020000000000fa29020015
:10504000000000000040da000000fe000040da002e
:045050000000fe005e
:020000040000fa
:0200000401f009
:04000800fdff0000f8
:020000040000fa
:0200000401f009
:04000c00f8ff0000f9
:020000040000fa
:0200000401f009
:040010007bff000072
:020000040000fa
:0200000401f009
:040014007fff00006a
:020000040000fa
:0200000401f009
:04001800ffff0000e6
:020000040000fa
:0200000401f009
:04001c00dfff000002
:020000040000fa
:1000080026280000262800002628000026280000b0
:1000180026280000262800002628000026280000a0
:100028002628000026280000262800002628000090
:100038002628000026280000262800002628000080
:020000040000fa
:020000040000fa
:105054000493000091c800004194000000c10000c6
:1050640002000000180900008a710000c8ac0000aa
:020000040000fa
:1050740090022000303a8800f0f32f004427b60055
:1050840000fe2f004427b60010002000a2092000d3
:105094008107200033742000814978008249780018
:1050a40080497800720520006104200023742000e8
:1050b40081497800824978008049780001002700fe
:1050c40000002100123a800001016100800f5100ac
:1050d400fcff3a0042a7ab00feff320000000600ce
:1050e40040a7a900e2ff370002e3a90000fc2f005b
:1050f400a426b600f00f2c00d226b600c862a80081
:105104000002040000000000000006008500ab005f
:105114000b003a002222ab00020032002222a90036
:10512400faff37002242ab00f8ff3a002202ab003c
:10513400f6ff320011e1a9003011800000000600e2
:105144000040eb00000006000400fa00889fbe0047
:105154008a1f780000047800010578008004eb00c1
:105164000e0037008200780003007800b2bf9f0071
:10517400c3bf9f007d010700015c78004882de0008
:10518400045c7800005c78003fb99700cfb99700c1
:1051940062014100e08149008904e8008a8f5400db
:1051a400f0ff35004f0578004f04be000080fa0080
:1051b400000006002302ab00feff32000000fb00eb
:1051c4002011880000000600889fbe008a1f780016
:1051d40000057800810478000004eb000300370028
:1051e4006a407c00f3ff07000804e800890f5400bc
:1051f400fbff35004f0578004f04be000000060099
:10520400ea874700889fbe008a9fbe008c9fbe002d
:105214008e1f7800000778000204be000006eb0031
:105224008c067800ee407e008180fb0002f02f00a7
:105234000a006100810070000c00470010419000da
:105244004811dd00f10fb20002857000204190008a
:105254000281fb0001f02f000b806000020170004e
:10526400f20fb20082057800630646008a017800d6
:105274008800780009007800380107007f00640086
:10528400f80f500004003a00f8b79f0089bf9f0050
:10529400dab79f00ebb79f00e08f56000a00320098
:1052a4000d00e800f003b20007003a00dfb19700f8
:1052b4006fb19700ffb097000fb897002701070060
:1052c400100024001a01070062044400e0844c002a
:1052d4008d06e800f01f2000808f5600d1ff3400b7
:1052e4004f0778004f06be004f05be004f04be00b6
:1052f400af00b10000000600889fbe008a9fbe0078
:105304008c1f78008005780080ff07007fff07006e
:105314007eff07006044b8008984fb000005eb00b1
:10532400fc5f200079ff07008040780000802000a7
:1053340001707d000a05e8008c0f5500f9ff340068
:10534400e08f550002003200016020008700070052
:10535400e00f5400e08f5c0010003a0021002000b0
:105364000801be0010e0200077ff070003cebf0055
:1053740000e8b70002cebf0001e8b70001cebf00cd
:1053840002e8b70006cebf0003e8b70005cebf00b1
:1053940004e8b70004cebf0005e8b70002802d0082
:1053a400f3ff2f0008014100898149000040eb0010
:1053b40001402000810f5100e08f590008003600a1
:1053c400220424008800780009007800eb0007001c
:1053d4000801be000080200089ff070010c0b30050
:1053e4004f0678004f05be004f04be0000000600c3
:1053f400889fbe008a1f780039ff07001061a8004b
:105404008500a9009500a90000402b00414c200014
:10541400710888006008880011e1a80002e3a80070
:105424002135800000fc2f00808060000120a00056
:1054340021358800c882a800213580008080600062
:105444000120a0002135880092368000f10f2c0045
:10545400810061000130b30091368800c862a90060
:105464004101200041118800010028000111880039
:1054740001402000111188000045780023ff070037
:105484000000fb00cf80de00ec0f5000e08f5800de
:105494002e003e00006001002b0037002b00370077
:1054a4002a0037000900370028003700270037009a
:1054b40026003700140037002300370009003700a6
:1054c40022003700210037000200370010002000be
:1054d400010037000000eb0087ff070035ff0700dd
:1054e400e6ff370030c0b30000e8b7000a007800d8
:1054f40001e8b700210020000080200032ff0700ef
:1055040014000700ddff37000004eb00fffe070076
:105514000980200080747c000804e800fbfe07007a
:1055240080747c000804e800f8fe070080747c00a6
:105534000804e80010c0b3001eff0700f70f540072
:10554400f2ff3400cdff3700e7fe07000040eb0018
:10555400e2ff370082e020006000b8000089be004e
:10556400200198003101980000000600ee874700f2
:10557400889fbe008a9fbe008c9fbe008e1f78004d
:10558400b1b79f008000eb0081bf9f000007780047
:105594005a0037001e01be00e2b79f00f3b79f0018
:1055a4000e0078005001be00c2b79f00d3b79f0021
:1055b4000205be006fb69700ffb69700087223007d
:1055c400796e2c00c548dd004b41de00028170007d
:1055d400cb49de00630161004211dd00a3822a0091
:1055e4000281410032034400a2834c00cb68dd00f9
:1055f4004561de0002817000c569de00446add0099
:10560400cc62de00850272004462dd0004016900a0
:10561400858169000201460083814e0002016b000e
:1056240083816b000205550083855d0072642c0044
:10563400831c26000804410089844900e3006400b7
:10564400c208dd00a3822a008180410031034400a6
:10565400a1834c00cb58dd004551de00028170006f
:10566400c559de00445add00cc52de0085027200ca
:105674004452dd000401690085816900020145008e
:1056840083814d0002016b0083816b00020656008a
:1056940083865e00e00f5400e08f5c00c9ff3a008f
:1056a40081e02000311f6e0021976e000007780012
:1056b4006270800073708000021f6d00039f6d0094
:1056c4006fb19700ffb1970091186900919069003c
:1056d40060708000717080004fb19700dfb1970057
:1056e4000000690081806900607088007170880022
:1056f4008fb99700e881410083bf9f000fb89700de
:10570400bfb09700810f5000a2ff39004f07780007
:105714004f06be004f05be004f04be00ef00b100af
:105724000000060090018800810078000000060057
:10573400003b880050052000303b8800a00a200070
:10574400303b880061e7a800000000000000000072
:1057540061e7af00feff37000000060090018800fb
:105764008308bb008288bb0000000600900188000b
:105774001100ba009180ba00000006003200f8005f
:10578400023b8800900188008108bb00500520007e
:10579400303b8800a00a2000303b880061e7a80065
:1057a400000000000000000061e7af00feff3700ca
:0857b4003200f90000000600bc
:00000001FF
